:020000040800F2
:100000000020002009130008B1120008B9120008EE
:1000100000000000000000000000000000000000E0
:10002000000000000000000000000000C1120008F5
:100030000000000000000000CB120008D5120008EC
:1000400059130008591300085913000859130008E0
:1000500059130008591300085913000859130008D0
:100060000000000059130008591300085913000834
:100070005913000859130008000000005913000824
:100080000000000000000000000000000000000070
:100090005913000800000000E51200085913000879
:1000A00000000000591300080000000000000000DC
:1000B0005913000859130008000000000000000058
:1000C00010B5064C2378002B07D1054B002B02D02E
:1000D000044800E000BF0123237010BD240000206D
:1000E00000000000B47A0008044B10B5002B03D0C8
:1000F0000349044800E000BF10BDC04600000000F6
:1001000028000020B47A0008002243088B4274D3F0
:1001100003098B425FD3030A8B4244D3030B8B4208
:1001200028D3030C8B420DD3FF22090212BA030C11
:100130008B4202D31212090265D0030B8B4219D3F2
:1001400000E0090AC30B8B4201D3CB03C01A524112
:10015000830B8B4201D38B03C01A5241430B8B425A
:1001600001D34B03C01A5241030B8B4201D30B0343
:10017000C01A5241C30A8B4201D3CB02C01A52416A
:10018000830A8B4201D38B02C01A5241430A8B422D
:1001900001D34B02C01A5241030A8B4201D30B0216
:1001A000C01A5241CDD2C3098B4201D3CB01C01A30
:1001B000524183098B4201D38B01C01A524143093A
:1001C0008B4201D34B01C01A524103098B4201D328
:1001D0000B01C01A5241C3088B4201D3CB00C01A95
:1001E000524183088B4201D38B00C01A524143080D
:1001F0008B4201D34B00C01A5241411A00D2014632
:10020000524110467047FFE701B5002000F006F8A4
:1002100002BDC0460029F7D076E770477047C04658
:1002200090B589B004AF78607868FA239B00029398
:10023000012301930F243B19009301237522D02140
:1002400001F07AFD3B191B78682B2DD10E217B180C
:1002500000221A707868FA239B000293012301930D
:100260000C003B19009301236B22D02101F036FCD6
:100270007868FA239B000293012301933B190093B2
:1002800001231C22D02101F029FC7868FA239B006D
:100290000293012301933B19009301231B22D021D8
:1002A00001F01CFC002300E0FF231800BD4605B050
:1002B00090BD90B589B004AF786039607868FA2352
:1002C0009B0002930623019308243B19009301230A
:1002D0003B22D02101F030FD21007B181B781BB29E
:1002E0001B021AB27B185B781BB213431AB23B682D
:1002F0001A807B189B781BB21B021AB27B18DB7822
:100300001BB213431AB23B685A807B181B791BB28D
:100310001B021AB27B185B791BB213431AB23B68FB
:100320009A807868FA239B000293062301930C00BD
:100330007B18009301234322D02101F0FDFC210012
:100340007B181B781BB21B021AB27B185B781BB29E
:1003500013431AB23B68DA807B189B781BB21B02EE
:100360001AB27B18DB781BB213431AB23B681A81AE
:100370007B181B791BB21B021AB27B185B791BB26C
:1003800013431AB23B685A81C046BD4605B090BDC2
:1003900090B589B004AF78607868FA239B00029327
:1003A000012301930F243B19009301237522D221CD
:1003B00001F0C2FC3B191B78682B2DD10E217B1854
:1003C00000221A707868FA239B000293012301939C
:1003D0000C003B19009301236B22D22101F07EFB1C
:1003E0007868FA239B000293012301933B19009341
:1003F00001231C22D22101F071FB7868FA239B00B3
:100400000293012301933B19009301231B22D22164
:1004100001F064FB002300E0FF231800BD4605B097
:1004200090BD90B589B004AF786039607868FA23E0
:100430009B0002930623019308243B190093012398
:100440003B22D22101F078FC21007B181B781BB2E3
:100450001B021AB27B185B781BB213431AB23B68BB
:100460001A807B189B781BB21B021AB27B18DB78B0
:100470001BB213431AB23B685A807B181B791BB21C
:100480001B021AB27B185B791BB213431AB23B688A
:100490009A807868FA239B000293062301930C004C
:1004A0007B18009301234322D22101F045FC210057
:1004B0007B181B781BB21B021AB27B185B781BB22D
:1004C00013431AB23B68DA807B189B781BB21B027D
:1004D0001AB27B18DB781BB213431AB23B681A813D
:1004E0007B181B791BB21B021AB27B185B791BB2FB
:1004F00013431AB23B685A81C046BD4605B090BD51
:1005000080B500AF00F02AFF00F03AF800F07AF969
:1005100000F0A8F800F0E6F800F01CF903F088FFFE
:1005200000F0F4F900F00AFD03005AB2114B1A7002
:10053000104A114B1100180000F0B6FD0E4B1B784D
:10054000052B13D89A000D4BD3181B689F4600F05B
:1005500003FA0EE000F00EFA0BE000F019FA08E0E2
:1005600000F03CFA05E000F05DFA02E0C046D9E791
:10057000C046D7E7300100202C010020247B000872
:1005800090B599B000AF2C243B19180034231A0001
:10059000002107F063FA1823FB18180014231A002F
:1005A000002107F05BFA3B00180018231A00002115
:1005B00007F054FA294B1B68294A1A40274B80211F
:1005C00009010A431A6021007B1802221A607B1875
:1005D0000122DA607B1810221A617B1802225A620B
:1005E0007B1800229A627B188022D202DA627B1882
:1005F0008022D2031A637B18180002F065F8031EEC
:1006000001D000F039FD18217B180F221A607B18E9
:1006100003225A607B1800229A607B180022DA605D
:100620007B1800221A617B180121180002F0C8FB18
:10063000031E01D000F020FD3B0008221A603B00A1
:1006400000221A613B00180002F088FD031E01D051
:1006500000F012FDC046BD4619B090BD00700040CC
:10066000FFE7FFFF80B500AF1B4B1C4A1A601A4B17
:100670001B4A5A60184B00229A60174B0122DA601D
:10068000154B00221A61144B00225A61124B0022B2
:100690009A61114B0022DA610F4B00221A620E4B55
:1006A000180001F075F9031E01D000F0E5FC0A4BBB
:1006B0000021180001F070FF031E01D000F0DCFCE7
:1006C000054B0021180001F0B3FF031E01D000F01C
:1006D000D3FCC046BD4680BD400000200054004011
:1006E000B47CB00080B500AF184B194A1A60174BA4
:1006F000822252005A60154B00229A60134B00224E
:10070000DA60124B00221A61104B00225A610F4B23
:10071000802292009A610D4B3022DA610B4B00224D
:100720001A620A4B00225A62084B00229A62074B57
:100730000722DA62054B180002F03CFE031E01D0CE
:1007400000F09AFCC046BD4680BDC0469400002023
:100750000030014080B586B000AF0823FB181800B8
:1007600010231A00002107F079F93B001800082334
:100770001A00002107F072F91E4B1F4A1A601D4B28
:100780001E4A5A601B4B00229A601A4B1C4ADA60C0
:10079000184B00221A61174B80225A61154B180022
:1007A00003F088FA031E01D000F066FC08217B18D4
:1007B000802252011A607A180E4B1100180003F0C3
:1007C000F7FB031E01D000F057FC3B0000221A602B
:1007D0003B0000225A603A00064B1100180003F05B
:1007E000CFFD031E01D000F047FCC046BD4606B059
:1007F00080BDC046EC000020001401407F0C0000CA
:10080000E703000090B589B000AF0C243B19180035
:1008100014231A00002107F021F93A4BDA6A394B08
:1008200001210A43DA62374BDB6A01221340BB60C5
:10083000BB68344BDA6A334B02210A43DA62314B2C
:10084000DB6A022213407B607B68A023DB05012268
:100850001021180001F07FF880235901A023DB0547
:100860000022180001F077F83B1910221A603B199A
:1008700001225A603B1901229A603B190222DA6078
:100880003A19A023DB051100180000F0D9FE3B192E
:10089000902212011A603B1900225A603B19002273
:1008A0009A603A19A023DB051100180000F0C8FE79
:1008B00021007B18802252011A600C003B19012292
:1008C0005A603B1900229A603B190122DA603A19FA
:1008D000A023DB051100180000F0B2FE3B19302206
:1008E0001A603B1900225A603B1900229A603B199A
:1008F000054A1900100000F0A3FEC046BD4609B02D
:1009000090BDC046001002400004005080B500AF0A
:1009100000F0F0F80B4B180000F036F900F0D6F8B4
:10092000094A0A4B1100180000F0ACFB084B1D21CE
:10093000180000F0A7F8074B00221A70C046BD4609
:1009400080BDC04640000020300100202C01002066
:10095000500100204C01002080B500AF80235901D8
:10096000A023DB050122180000F0F5FFC046BD46BC
:1009700080BD000080B500AF00F02CFB03001A0022
:10098000024B1A70C046BD4680BDC0464D010020D6
:1009900080B500AF0B4B5B785BB2002B02D0094BEC
:1009A00000225A70084A0949094B180000F00FF953
:1009B000084B1B78044A0549074800F01EF9C04659
:1009C000BD4680BD300100204001002034010020E0
:1009D000400000204D0100205001002080B500AFF4
:1009E0000C4B0D490D481D2206F08AFB0C4B1B7861
:1009F0000133DAB20A4B1A70094B1B78312B06D936
:100A0000064B180006F0F6FC054B00221A70C04693
:100A1000BD4680BDD005002050010020A00300206D
:100A2000D405002080B500AF124B1B78002B1DD1E0
:100A3000104B01221A7080235901A023DB050022EC
:100A4000180000F088FF0C4B180006F0D3FC0A4B8E
:100A5000180006F058FD094B01221900002006F08D
:100A60000FF9074B180003F0B1F900E0C046BD468E
:100A700080BDC0464C010020A0030020CC7A0008B5
:100A8000EC00002080B584B000AF78600A00BB1C89
:100A90001A800E23FB1800221A800BE00E217B180F
:100AA0001B887A68D31800221A707B181A887B1862
:100AB00001321A800E23FA18BB1C12881B889A4236
:100AC000ECD3C046C046BD4604B080BD80B500AF83
:100AD000074B180003F02EF900220021162000F029
:100AE0007DFD162000F08FFDC046BD4680BDC0468E
:100AF000EC00002090B583B000AFFA239B001800F3
:100B000000F09CFCFC1D1C491C4B0122180006F047
:100B1000B7F803002370FB1D1B78002B09D080233E
:100B20005901A023DB050122180000F014FF002367
:100B30001EE0FC1D1249134B1222180006F0ECF8BF
:100B400003002370FB1D1B78002B09D08023590163
:100B5000A023DB050122180000F0FDFE002307E0C2
:100B6000084BDA68074B1100180006F000FD01235E
:100B70001800BD4603B090BDD07A00087001002077
:100B8000D47A0008A0030020F0B585B000AF7860EB
:100B90000F257C197B681800FFF742FB03002370C8
:100BA0000E26BC197B681800FFF7F2FB03002370C8
:100BB0007B191B78002B05D1BB191B78002B01D1A9
:100BC000002300E001231800BD4605B0F0BD80B54C
:100BD00084B000AFF860B9607A60BA68FB68110051
:100BE0001800FFF766FB7A68FB6811001800FFF732
:100BF00018FCC046BD4604B080BD90B587B000AFBC
:100C0000F860B9607A601A00FB1C1A7017243B194F
:100C100000221A7000F008FC03003B613B69190ECA
:100C20003B191B783A19581C10701A00FB689B1866
:100C3000CAB21A703B69190C3B191B783A19581C37
:100C400010701A00FB689B18CAB21A703B69190A27
:100C50003B191B783A19581C10701A00FB689B1836
:100C6000CAB21A703B191B7820003A19591C11702E
:100C70001A00FB689B183A69D2B21A70BB6800224E
:100C80009B5E1B1219B204003B191B783A19581CC1
:100C900010701A00FB689B18CAB21A70BB6800215A
:100CA000595E3B191B783A19581C10701A00FB68E2
:100CB0009B18CAB21A70BB6802229B5E1B1219B243
:100CC0003B191B783A19581C10701A00FB689B18C6
:100CD000CAB21A70BB680221595E3B191B783A19D7
:100CE000581C10701A00FB689B18CAB21A70BB68B7
:100CF00004229B5E1B1219B23B191B783A19581C2F
:100D000010701A00FB689B18CAB21A70BB680421E5
:100D1000595E3B191B783A19581C10701A00FB6871
:100D20009B18CAB21A70BB6806229B5E1B1219B2CE
:100D30003B191B783A19581C10701A00FB689B1855
:100D4000CAB21A70BB680621595E3B191B783A1962
:100D5000581C10701A00FB689B18CAB21A70BB6846
:100D600008229B5E1B1219B23B191B783A19581CBA
:100D700010701A00FB689B18CAB21A70BB68082171
:100D8000595E3B191B783A19581C10701A00FB6801
:100D90009B18CAB21A70BB680A229B5E1B1219B25A
:100DA0003B191B783A19581C10701A00FB689B18E5
:100DB000CAB21A70BB680A21595E3B191B783A19EE
:100DC000581C10701A00FB689B18CAB21A707B6816
:100DD00000229B5E1B1219B23B191B783A19581C52
:100DE00010701A00FB689B18CAB21A707B68002149
:100DF000595E3B191B783A19581C10701A00FB6891
:100E00009B18CAB21A707B6802229B5E1B1219B231
:100E10003B191B783A19581C10701A00FB689B1874
:100E2000CAB21A707B680221595E3B191B783A19C5
:100E3000581C10701A00FB689B18CAB21A707B68A5
:100E400004229B5E1B1219B23B191B783A19581CDD
:100E500010701A00FB689B18CAB21A707B680421D4
:100E6000595E3B191B783A19581C10701A00FB6820
:100E70009B18CAB21A707B6806229B5E1B1219B2BD
:100E80003B191B783A19581C10701A00FB689B1804
:100E9000CAB21A707B680621595E3B191B783A1951
:100EA000581C10701A00FB689B18CAB21A707B6835
:100EB00008229B5E1B1219B23B191B783A19581C69
:100EC00010701A00FB689B18CAB21A707B68082160
:100ED000595E3B191B783A19581C10701A00FB68B0
:100EE0009B18CAB21A707B680A229B5E1B1219B249
:100EF0003B191B783A19581C10701A00FB689B1894
:100F0000CAB21A707B680A21595E3B191B783A19DC
:100F1000581C10701A00FB689B18CAB21A703B1953
:100F20001B783A19591C11701A00FB689B18FA1C9F
:100F300012781A70C046BD4607B090BD90B583B018
:100F400000AF00F071FA03007B601E4B1B687A68EB
:100F5000D31A132B02D81C4B1B782FE0194B7A683D
:100F60001A60FC1C80235A00A023DB051100180026
:100F700000F0D4FC03002370144B1B78FA1C127889
:100F80009A4212D1124B1B78032B05D8104B1B78B9
:100F90000133DAB20E4B1A700D4B1B78032B07D9B5
:100FA000094BFA1C12781A7002E0094B00221A70E1
:100FB000064BFA1C12781A70034B1B781800BD46BA
:100FC00003B090BDD8050020DC050020DD05002021
:100FD000DE05002080B582B000AFFB1D00221A7034
:100FE0001A4B2021180000F099FC03005AB2FB1D97
:100FF0001B785BB213435AB2FB1D1A70134B1021BE
:10100000180000F08BFC03005B005AB2FB1D1B783C
:101010005BB213435AB2FB1D1A7080231A01A0233E
:10102000DB051100180000F079FC03009B005AB2A8
:10103000FB1D1B785BB213435AB2FB1D1A70FB1DDC
:101040001B781800BD4602B080BDC04600040050A9
:1010500080B582B000AF78607B681B68044A934219
:1010600002D1044B01225A70C046BD4602B080BD79
:10107000001401403001002080B500AF72B6C046B8
:10108000C046FDE780B582B000AF786039607B680C
:1010900000221A703B6800221A703B6800225A70C6
:1010A000C046BD4602B080BD80B582B000AF78605A
:1010B00039607B681B78052B2ED89A001D4BD318FE
:1010C0001B689F463B681B785BB2002B2AD07B686D
:1010D00001221A7026E07B6802221A7025E03B6824
:1010E0001B785BB2002B03D17B6805221A701BE0D2
:1010F0003B685B785BB2002B16D07B6803221A70CA
:1011000012E03B6800225A707B6804221A700CE0DF
:101110007B6802221A7008E07B6800221A7004E0E3
:10112000C04602E0C04600E0C046C046BD4602B030
:1011300080BDC0463C7B000880B500AF074B5A6BB2
:10114000064B01210A435A63044B9A6B034B8021DF
:1011500049050A439A63C046BD4680BD001002405F
:1011600090B589B000AF78600C243B1918001423A7
:101170001A00002106F072FC7B681B68184A934233
:101180002AD1184BDA6A174B01210A43DA62154B50
:10119000DB6A01221340BB60BB683B19C022D2004E
:1011A0001A6021007B1812225A607B1800229A6074
:1011B0007B180322DA607B1801221A617A18A023B7
:1011C000DB051100180000F03BFA064B9A6B054B4B
:1011D000802189030A439A63C046BD4609B090BD89
:1011E000005400400010024090B589B000AF786014
:1011F0000C243B19180014231A00002106F02EFCC1
:101200007B681B68184A934229D1184B5A6B174BBD
:10121000802149010A435A63144BDA6A134B0121B6
:101220000A43DA62114BDB6A01221340BB60BB68E0
:1012300021007B18E0221A607B1802225A607B187A
:1012400000229A607B180322DA607B1800221A6160
:101250007A18A023DB051100180000F0F1F9C04650
:10126000BD4609B090BDC0460030014000100240AC
:1012700080B582B000AF78607B681B680A4A9342F1
:101280000DD10A4B5A6B094B20210A435A630022A5
:101290000021162000F0A2F9162000F0B4F9C04693
:1012A000BD4602B080BDC04600140140001002409F
:1012B00080B500AFC046FDE780B500AFC046FDE792
:1012C00080B500AFC046BD4680BD80B500AFC0460A
:1012D000BD4680BD80B500AF00F094F8C046BD4665
:1012E00080BD000080B500AF034B180002F094FDF4
:1012F000C046BD4680BDC046EC00002080B500AFB2
:10130000C046BD4680BD00000D488546FFF7F6FF8C
:101310000C480D490D4A002302E0D458C450043350
:10132000C4188C42F9D30A4A0A4C002301E0136026
:101330000432A242FBD306F099FBFFF7E1F8FEE787
:10134000002000200000002024000020F87B00087E
:10135000240000202C060020FEE7000080B582B0AB
:1013600000AFFB1D00221A700B4B1A680A4B40217C
:101370000A431A60032000F011F8031E03D0FB1D7E
:1013800001221A7001E0FFF7D7FEFB1D1B78180041
:10139000BD4602B080BDC0460020024090B583B07B
:1013A00000AF7860144B1C68144B1B781900FA23AB
:1013B0009800FEF7A9FE030019002000FEF7A4FE26
:1013C0000300180000F02FF9031E01D001230FE0E5
:1013D0007B68032B0BD8796801235B42002218003D
:1013E00000F0FCF8064B7A681A60002300E0012345
:1013F0001800BD4603B090BD00000020080000208A
:101400000400002080B500AF054B1B781A00054B87
:101410001B68D218034B1A60C046BD4680BDC0464B
:1014200008000020E005002080B500AF024B1B68DB
:101430001800BD4680BDC046E005002080B584B0E0
:1014400000AF7860FFF7F0FF0300BB607B68FB60D4
:10145000FB68013305D00A4B1B781A00FB689B1808
:10146000FB60C046FFF7E0FF0200BB68D31AFA68D2
:101470009A42F7D8C046C046BD4604B080BDC046BB
:101480000800002080B582B000AF0200FB1D1A707A
:10149000FB1D1B787F2B09D8FB1D1B781A001F230F
:1014A0001A40044B012191400A001A60C046BD4613
:1014B00002B080BD00E100E090B583B000AF020053
:1014C0003960FB1D1A70FB1D1B787F2B28D82F4A13
:1014D000FB1D1B785BB29B08C0339B009B58FA1D19
:1014E0001278110003220A40D200FF2191400A0025
:1014F000D2431A4011003B689B01FF221A40FB1D9A
:101500001B78180003230340DB009A401F48FB1D93
:101510001B785BB29B080A43C0339B001A5031E032
:101520001B4AFB1D1B7819000F230B40083B9B082F
:1015300006339B00D31804331B68FA1D1278110080
:1015400003220A40D200FF2191400A00D2431A40F0
:1015500011003B689B01FF221A40FB1D1B781800FD
:1015600003230340DB009A400948FB1D1B781C0045
:101570000F232340083B9B080A4306339B00C318F4
:1015800004331A60C046BD4603B090BD00E100E0E0
:1015900000ED00E080B582B000AF78607B685A1E35
:1015A00080235B049A4201D3012310E00A4B7A683E
:1015B000013A5A6001235B4203211800FFF77CFFC8
:1015C000054B00229A60044B07221A600023180082
:1015D000BD4602B080BDC04610E000E080B584B0DA
:1015E00000AFB9607A600F217B18021C1A70BA68CC
:1015F0007B181B785BB211001800FFF75DFFC04637
:10160000BD4604B080BD80B582B000AF0200FB1DB6
:101610001A70FB1D1B785BB21800FFF733FFC04642
:10162000BD4602B080BD80B582B000AF78607B68F7
:101630001800FFF7AFFF03001800BD4602B080BDE1
:1016400080B586B000AF7860396000237B610023ED
:10165000FB6000233B6149E13B681B6801217A691B
:1016600091400A001340FB60FB68002B00D13AE177
:101670003B685B6803221340012B05D03B685B6825
:1016800003221340022B30D17B689B683B617B694E
:101690005B0003229A401300DA433B6913403B612D
:1016A0003B68DA687B695B009A4013003A69134330
:1016B0003B617B683A699A607B685B683B610122A9
:1016C0007B699A401300DA433B6913403B613B68F6
:1016D0005B681B0901221A407B699A4013003A6932
:1016E00013433B617B683A695A603B685B6803223D
:1016F0001340032B17D07B68DB683B617B695B0081
:1017000003229A401300DA433B6913403B613B6874
:101710009A687B695B009A4013003A6913433B6106
:101720007B683A69DA603B685B6803221340022BEE
:1017300023D17B69DA087B6808329200D3583B6179
:101740007B69072213409B000F229A401300DA4363
:101750003B6913403B613B681A697B6907210B4079
:101760009B009A4013003A6913433B617B69DA0896
:101770007B68083292003969D1507B681B683B61F5
:101780007B695B0003229A401300DA433B691340F4
:101790003B613B685B6803221A407B695B009A40AF
:1017A00013003A6913433B617B683A691A603B68EE
:1017B0005A68C0239B02134000D194E0514B5A6BEE
:1017C000504B01210A435A634F4A7B699B080233FD
:1017D0009B009B583B617B69032213409B000F22B7
:1017E0009A401300DA433B6913403B617A68A023B7
:1017F000DB059A4213D07B68444A93420DD07B6844
:10180000434A934207D07B68424A934201D1052361
:1018100006E0062304E0022302E0012300E00023A7
:101820007A6903210A40920093403A6913433B616D
:1018300035497B699B0802339B003A695A50364B05
:101840009B683B61FB68DA433B6913403B613B6843
:101850005A6880235B03134003D03A69FB68134343
:101860003B612D4B3A699A602B4BDB683B61FB680F
:10187000DA433B6913403B613B685A6880239B0312
:10188000134003D03A69FB6813433B61224B3A692A
:10189000DA60214B5B683B61FB68DA433B691340CC
:1018A0003B613B685A6880239B02134003D03A692E
:1018B000FB6813433B61184B3A695A60164B1B682F
:1018C0003B61FB68DA433B6913403B613B685A6804
:1018D00080235B02134003D03A69FB6813433B61EA
:1018E0000D4B3A691A607B6901337B613B681A686A
:1018F0007B69DA40131E00D0AEE6C046C046BD4646
:1019000006B080BD001002400000014000040050FD
:1019100000080050001C00500004014080B584B055
:1019200000AF78600A00BB1C1A807B681B69BA1C78
:101930001288134004D00F23FB1801221A7003E011
:101940000F23FB1800221A700F23FB181B781800B6
:10195000BD4604B080BD80B582B000AF786008009D
:101960001100BB1C021C1A807B1C0A1C1A707B1CF9
:101970001B78002B04D0BB1C1A887B689A6103E09B
:10198000BB1C1A887B689A62C046BD4602B080BD07
:1019900080B582B000AF78607B68002B01D1012355
:1019A0008FE07B6841229B5CDBB2002B07D17B6818
:1019B0004022002199547B681800FFF7D1FB7B6817
:1019C0004122242199547B681B681A687B681B6834
:1019D00001218A431A607B685A687B681B683B490F
:1019E0000A401A617B681B689A687B681B683849E3
:1019F0000A409A607B68DB68012B08D17B689A6893
:101A00007B681B68802109020A439A6007E07B68B3
:101A10009A687B681B68842109020A439A607B6884
:101A2000DB68022B09D17B681B685A687B681B68DE
:101A3000802109010A435A6007E07B681B685A68E5
:101A40007B681B6823490A405A607B681B685A6898
:101A50007B681B6820490A435A607B681B68DA6808
:101A60007B681B681A490A40DA607B681A697B68E0
:101A70005B691A4311007B689B691A027B681B68CB
:101A80000A43DA607B68D9697B681A6A7B681B68DD
:101A90000A431A607B681B681A687B681B6801210F
:101AA0000A431A607B6800225A647B684122202125
:101AB00099547B6800221A637B6842220021995462
:101AC00000231800BD4602B080BDC046FFFFFFF0F6
:101AD000FF7FFFFFFFF7FFFF0080000290B589B096
:101AE00002AFF8600C00100019000A23FB18221C3A
:101AF0001A800823FB18021C1A80BB1D0A1C1A80BE
:101B0000FB6841229B5CDBB2202B00D00CE1BB6A5E
:101B1000002B04D02C23FB181B88002B05D1FB685D
:101B2000802292005A640123FFE0FB6840229B5C04
:101B3000012B01D10223F8E0FB68402201219954D6
:101B4000FFF772FC03007B6180231902F8687B6950
:101B500000931923012200F00BFB031E01D0012387
:101B6000E3E0FB68412221219954FB684222402195
:101B70009954FB6800225A64FB68BA6A5A62FB688F
:101B80002C22BA1812885A85FB6800225A63BB1DA2
:101B90001C880823FB181A880A23FB181988F86880
:101BA0007B6901933B6B0093230000F0F9F9031E5E
:101BB00005D0FB684022002199540123B5E0FB6861
:101BC0005B8D9BB2FF2B11D9FB68FF221A85FB6846
:101BD0001B8DDAB280235C040A23FB181988F8688D
:101BE00000230093230000F09DFC12E0FB685B8D56
:101BF0009AB2FB681A85FB681B8DDAB280239C04BD
:101C00000A23FB181988F86800230093230000F0CA
:101C100089FC7A69396BFB68180000F001FB031E30
:101C200001D0012381E0FB685B6A1A78FB681B68BE
:101C30009A62FB685B6A5A1CFB685A62FB685B8DA0
:101C40009BB2013B9AB2FB685A85FB681B8D013B36
:101C50009AB2FB681A85FB685B8D9BB2002B3AD069
:101C6000FB681B8D002B36D13A6BF8687B690093BB
:101C700013000022802100F07BFA031E01D0012313
:101C800053E0FB685B8D9BB2FF2B11D9FB68FF22F1
:101C90001A85FB681B8DDAB280235C040A23FB18CB
:101CA0001988F86800230093230000F03BFC12E041
:101CB000FB685B8D9AB2FB681A85FB681B8DDAB2F4
:101CC00080239C040A23FB181988F86800230093DA
:101CD000230000F027FCFB685B8D9BB2002B98D1A2
:101CE0007A69396BFB68180000F0E0FA031E01D036
:101CF00001231AE0FB681B682022DA61FB681B687D
:101D00005A68FB681B680B490A405A60FB6841220D
:101D100020219954FB68422200219954FB684022FB
:101D200000219954002300E002231800BD4607B0AB
:101D300090BDC04600E800FE90B589B002AFF860E3
:101D40000C00100019000A23FB18221C1A8008231B
:101D5000FB18021C1A80BB1D0A1C1A80FB6841225A
:101D60009B5CDBB2202B00D010E1BB6A002B04D0BF
:101D70002C23FB181B88002B05D1FB6880229200C6
:101D80005A64012303E1FB6840229B5C012B01D1D3
:101D90000223FCE0FB68402201219954FFF744FB39
:101DA00003007B6180231902F8687B690093192383
:101DB000012200F0DDF9031E01D00123E7E0FB68FA
:101DC000412222219954FB68422240219954FB6808
:101DD00000225A64FB68BA6A5A62FB682C22BA185D
:101DE00012885A85FB6800225A63BB1D1C88082391
:101DF000FB181A880A23FB181988F8687B69019375
:101E00003B6B0093230000F02FF9031E05D0FB6805
:101E10004022002199540123B9E0FB685B8D9BB2FD
:101E2000FF2B11D9FB6801221A85FB681B8DDAB2E2
:101E300080235C040A23FB181988F868564B00932A
:101E4000230000F06FFB12E0FB685B8D9AB2FB6829
:101E50001A85FB681B8DDAB280239C040A23FB18C9
:101E60001988F8684C4B0093230000F05BFB3A6B39
:101E7000F8687B69009313000022042100F078F9D0
:101E8000031E01D0012382E0FB681B685A6AFB68CD
:101E90005B6AD2B21A70FB685B6A5A1CFB685A62B2
:101EA000FB681B8D013B9AB2FB681A85FB685B8D52
:101EB0009BB2013B9AB2FB685A85FB685B8D9BB273
:101EC000002B3AD0FB681B8D002B36D13A6BF8689B
:101ED0007B69009313000022802100F049F9031E62
:101EE00001D0012353E0FB685B8D9BB2FF2B11D91E
:101EF000FB6801221A85FB681B8DDAB280235C0423
:101F00000A23FB181988F86800230093230000F0C7
:101F100009FB12E0FB685B8D9AB2FB681A85FB68CF
:101F20001B8DDAB280239C040A23FB181988F868F9
:101F300000230093230000F0F5FAFB685B8D9BB251
:101F4000002B94D17A69396BFB68180000F0AEF968
:101F5000031E01D001231AE0FB681B682022DA610E
:101F6000FB681B685A68FB681B680C490A405A608A
:101F7000FB68412220219954FB6842220021995498
:101F8000FB68402200219954002300E0022318003E
:101F9000BD4607B090BDC0460024008000E800FEAA
:101FA000B0B586B002AFF8600C00100019000A2529
:101FB0007B19221C1A800823FB18021C1A80BB1DE7
:101FC0000A1C1A80BB1D1B88DAB280235C047B19B3
:101FD0001988F868234B0093230000F0A3FA7A6A6B
:101FE000396AFB68180000F01BF9031E01D00123B9
:101FF00033E0BB1D1B88012B07D10823FB181B886E
:10200000DAB2FB681B689A6219E00823FB181B8888
:102010001B0A9BB2DAB2FB681B689A627A6A396A59
:10202000FB68180000F0FCF8031E01D0012314E047
:102030000823FB181B88DAB2FB681B689A623A6AAD
:10204000F8687B6A009313000022802100F090F86A
:10205000031E01D0012300E000231800BD4604B098
:10206000B0BDC04600200080B0B586B002AFF860B9
:102070000C00100019000A257B19221C1A80082365
:10208000FB18021C1A80BB1D0A1C1A80BB1D1B8872
:10209000DAB27B191988F868234B0093002300F00B
:1020A00041FA7A6A396AFB68180000F0B9F8031E31
:1020B00001D0012333E0BB1D1B88012B07D108236E
:1020C000FB181B88DAB2FB681B689A6219E00823C8
:1020D000FB181B881B0A9BB2DAB2FB681B689A626A
:1020E0007A6A396AFB68180000F09AF8031E01D07A
:1020F000012314E00823FB181B88DAB2FB681B6875
:102100009A623A6AF8687B6A0093130000224021C1
:1021100000F02EF8031E01D0012300E00023180078
:10212000BD4604B0B0BDC0460020008080B582B07E
:1021300000AF78607B681B689B6902221340022B0A
:1021400003D17B681B6800229A627B681B689B69CD
:1021500001221340012B07D07B681B689A697B68BA
:102160001B6801210A439A61C046BD4602B080BD8A
:1021700080B584B000AFF860B9603B60FB1D1A7099
:102180003AE0BA693968FB68180000F0D3F8031E1A
:1021900001D0012340E03B6801332DD0FFF744F923
:1021A0000200BB69D31A3A689A4202D33B68002BFB
:1021B00022D1FB681B689B69BA681340BA68D31ABE
:1021C0005A425341DBB21A00FB1D1B789A4213D1CD
:1021D000FB685B6C20221A43FB685A64FB6841224F
:1021E00020219954FB68422200219954FB68402227
:1021F0000021995401230FE0FB681B689B69BA68B2
:102200001340BA68D31A5A425341DBB21A00FB1D7D
:102210001B789A42B5D000231800BD4604B080BD9B
:1022200080B584B000AFF860B9607A6032E07A6857
:10223000B968FB68180000F07DF8031E01D0012387
:1022400030E0BB68013325D0FFF7EEF802007B6871
:10225000D31ABA689A4202D3BB68002B1AD1FB6822
:102260001B689B6902221340022B13D0FB685B6C36
:1022700020221A43FB685A64FB68412220219954AA
:10228000FB68422200219954FB68402200219954A6
:10229000012307E0FB681B689B6902221340022BA5
:1022A000C5D100231800BD4604B080BD80B584B000
:1022B00000AFF860B9607A602FE07A68B968FB68AF
:1022C000180000F037F8031E01D001232DE0FFF7BE
:1022D000ABF802007B68D31ABA689A4202D3BB6893
:1022E000002B1AD1FB681B689B6920221340202B0E
:1022F00013D0FB685B6C20221A43FB685A64FB68AE
:10230000412220219954FB68422200219954FB6804
:10231000402200219954012307E0FB681B689B6958
:1023200020221340202BC8D100231800BD4604B042
:1023300080BD000080B58AB000AFF860B9607A60F7
:102340002723FB1800221A70FB681B689B69BB617E
:1023500000233B627B68FB61BB691022134000D104
:1023600079E0FB681B681022DA6157E02722BB186E
:10237000BA1812781A70BB6801334FD0FFF754F8BF
:102380000200FB69D31ABA689A4202D3BB68002BD9
:1023900044D1FB681B685A688023DB0113407B61D2
:1023A00013203B18FA684221525C1A70FB681B68C4
:1023B0009A6980231B021A4080231B029A4226D16D
:1023C0007A698023DB019A4221D03B181B78202BAD
:1023D0001DD0FB681B685A68FB681B688021C90117
:1023E0000A435A60FFF720F80300FB610FE0FFF794
:1023F0001BF80200FB69D31A192B08D93B6A20226B
:1024000013433B622723FB1801221A7006E0FB6886
:102410001B689B6920221340202BE8D1FB681B68B6
:102420009B6920221340202B04D02723FB181B7804
:10243000002B9BD02723FB181B78002B03D1FB68B4
:102440001B682022DA613B6A042213433B62272384
:10245000FB1801221A70FB681B689B69BB61BA6993
:1024600080235B0013400CD03B6A012213433B6284
:10247000FB681B6880225200DA612723FB180122C7
:102480001A70BA698023DB0013400CD03B6A082223
:1024900013433B62FB681B688022D200DA6127236A
:1024A000FB1801221A70BA6980239B0013400CD0DC
:1024B0003B6A022213433B62FB681B688022920046
:1024C000DA612723FB1801221A702723FB181B78D7
:1024D000002B1DD0FB681800FFF728FEFB681B6867
:1024E0005A68FB681B680E490A405A60FB685A6CC0
:1024F0003B6A1A43FB685A64FB68412220219954C5
:10250000FB68422200219954FB6840220021995423
:102510002723FB181B781800BD460AB080BDC046B3
:1025200000E800FE90B587B000AFF8600800110029
:102530007B600A243B19021C1A8009203B180A1CE4
:102540001A703B191B889B059A0D3B181B781904C0
:10255000FF231B040B401A437B681A43BB6A1343D7
:102560005B005B087B61FB681B685B68BA6A510DA6
:102570008022D2000A4007490A43D2431A40110080
:10258000FB681B687A690A435A60C046BD4607B0BB
:1025900090BDC046FF63FF0380B582B000AF786096
:1025A00039607B6841229B5CDBB2202B38D17B6891
:1025B00040229B5C012B01D1022332E07B68402248
:1025C000012199547B684122242199547B681B681E
:1025D0001A687B681B6801218A431A607B681B6844
:1025E0001A687B681B6811490A401A607B681B687F
:1025F00019687B681B683A680A431A607B681B6825
:102600001A687B681B6801210A431A607B684122B3
:10261000202199547B68402200219954002300E036
:1026200002231800BD4602B080BDC046FFEFFFFF89
:1026300080B584B000AF786039607B6841229B5CD4
:10264000DBB2202B39D17B6840229B5C012B01D16E
:10265000022333E07B684022012199547B684122A8
:10266000242199547B681B681A687B681B680121C8
:102670008A431A607B681B681B68FB60FB68114A11
:102680001340FB603B681B02FA681343FB607B68E6
:102690001B68FA681A607B681B681A687B681B688D
:1026A00001210A431A607B684122202199547B68EA
:1026B000402200219954002300E002231800BD4667
:1026C00004B080BDFFF0FFFFB0B58AB000AF786006
:1026D0007B68002B02D1012300F06CFBC84BDB6848
:1026E0000C221340FB61C64BDA6880235B02134067
:1026F000BB617B681B680122134000D17DE0FB6950
:10270000082B07D0FB690C2B12D1BA6980235B021E
:102710009A420DD1BA4B1A6880239B02134000D114
:102720006AE07B685B68002B66D1012300F042FB06
:102730007B685A6880235B029A4207D1B04B1A68C3
:10274000AF4B802149020A431A6027E07B685A6830
:10275000A023DB029A420ED1A94B1A68A84B802114
:10276000C9020A431A60A64B1A68A54B8021490288
:102770000A431A6012E0A24B1A68A14BA1490A4011
:102780001A609F4B1A6880235B021340FB60FB6852
:102790009B4B1A689A4B9C490A401A607B685B689D
:1027A000002B14D0FEF740FE03007B6108E0FEF72B
:1027B0003BFE02007B69D31A642B01D90323F9E2A3
:1027C0008F4B1A6880239B021340F0D015E0FEF770
:1027D0002BFE03007B6108E0FEF726FE02007B690A
:1027E000D31A642B01D90323E4E2854B1A688023B2
:1027F0009B021340F0D100E0C0467B681B680222B8
:10280000134000D199E07B68DB687B627B6A202201
:10281000134009D07A4B1A68794B20210A431A6079
:102820007B6A202293437B62FB69042B05D0FB6902
:102830000C2B3ED1BB69002B3BD1714B1B68042292
:10284000134004D07B6A002B01D10123B2E26C4B10
:102850005B686E4A134019007B681B691A02684B5B
:102860000A435A60664B1B68092293431900644B64
:102870007A6A0A431A6000F0EBFB0100604BDB68E8
:102880001B090F221340624AD35C0A00DA40614BF5
:102890001A60614B1B6813257C191800FEF77EFD3A
:1028A000030023707B191B78002B46D07B191B7803
:1028B00080E27B6A002B27D0514B1B68092293438F
:1028C00019004F4B7A6A0A431A60FEF7ADFD030008
:1028D0007B6108E0FEF7A8FD02007B69D31A022B9A
:1028E00001D9032366E2464B1B6804221340F1D052
:1028F000434B5B68454A134019007B681B691A0209
:102900003F4B0A435A6018E03D4B1A683C4B01218B
:102910008A431A60FEF788FD03007B6108E0FEF73A
:1029200083FD02007B69D31A022B01D9032341E204
:10293000334B1B6804221340F1D17B681B681022C3
:10294000134000D1A1E0FB69002B40D12C4B1A6849
:1029500080239B00134005D07B689B69002B01D12D
:10296000012327E2264B5B682C4A134019007B6841
:102970001A6A234B0A435A60214B5B681B02190AEF
:102980007B68DB691A061E4B0A435A607B681B6A28
:102990005B0B0133802212029A40194BDB681B0942
:1029A0000F210B401A49CB5CDA401A4B1A601A4BC4
:1029B0001B6813257C191800FEF7F0FC0300237038
:1029C0007B191B78002B60D07B191B78F2E17B68A8
:1029D0009B69002B3FD00A4B1A68094B80214900A4
:1029E0000A431A60FEF720FD03007B6118E0FEF742
:1029F0001BFD02007B69D31A022B11D90323D9E1F5
:102A000000100240FFFFFEFFFFFFFBFFFFE0FFFFA4
:102A1000547B00080000002004000020FF1FFFFF7F
:102A2000C94B1A6880239B001340E0D0C64B5B68FB
:102A3000C64A134019007B681A6AC34B0A435A609E
:102A4000C14B5B681B02190A7B68DB691A06BE4B27
:102A50000A435A6019E0BC4B1A68BB4BBC490A4098
:102A60001A60FEF7E1FC03007B6108E0FEF7DCFC86
:102A700002007B69D31A022B01D903239AE1B24BDE
:102A80001A6880239B001340F0D17B681B680822E2
:102A9000134036D07B685B69002B19D0AA4B1A6DA6
:102AA000A94B01210A431A65FEF7BEFC03007B61B6
:102AB00008E0FEF7B9FC02007B69D31A022B01D9AA
:102AC000032377E1A04B1B6D02221340F1D018E0E5
:102AD0009D4B1A6D9C4B01218A431A65FEF7A4FC9D
:102AE00003007B6108E0FEF79FFC02007B69D31ABC
:102AF000022B01D903235DE1934B1B6D022213408E
:102B0000F1D17B681B680422134000D1AEE0232082
:102B10003B1800221A708C4B9A6B80235B05134084
:102B200009D1894B9A6B884B802149050A439A63E6
:102B30003B1801221A70874B1A6880235B001340F0
:102B40001AD1844B1A68834B802149000A431A60CA
:102B5000FEF76AFC03007B6108E0FEF765FC0200FB
:102B60007B69D31A642B01D9032323E1794B1A68BB
:102B700080235B001340F0D07B689A6880235B0061
:102B80009A4207D1704B1A6D6F4B802149000A435E
:102B90001A6531E07B689B68002B0CD16A4B1A6D7B
:102BA000694B6B490A401A65674B1A6D664B6A4957
:102BB0000A401A6520E07B689A68A023DB009A42ED
:102BC0000ED1614B1A6D604B8021C9000A431A6512
:102BD0005D4B1A6D5C4B802149000A431A650BE07E
:102BE000594B1A6D584B5A490A401A65564B1A6D83
:102BF000554B59490A401A657B689B68002B15D0D4
:102C0000FEF712FC03007B6109E0FEF70DFC0200F9
:102C10007B69D31A514A934201D90323CAE04A4B34
:102C20001A6D80239B001340EFD014E0FEF7FCFBED
:102C300003007B6109E0FEF7F7FB02007B69D31A12
:102C4000464A934201D90323B4E03F4B1A6D8023D7
:102C50009B001340EFD12323FB181B78012B05D1D8
:102C6000394B9A6B384B3E490A409A637B685B6AE2
:102C7000002B00D19DE0FB690C2B00D176E07B6836
:102C80005B6A022B45D1304B1A682F4B35490A40FD
:102C90001A60FEF7C9FB03007B6108E0FEF7C4FB86
:102CA00002007B69D31A022B01D9032382E0264B51
:102CB0001A6880239B041340F0D1234BDB682A4A17
:102CC000134019007B689A6A7B68DB6A1A437B6849
:102CD0001B6B1A431C4B0A43DA601B4B1A681A4BD6
:102CE000802149040A431A60FEF79EFB03007B61C2
:102CF00008E0FEF799FB02007B69D31A022B01D989
:102D0000032357E0104B1A6880239B041340F0D034
:102D10004FE00D4B1A680C4B12490A401A60FEF73F
:102D200083FB03007B6108E0FEF77EFB02007B690A
:102D3000D31A022B01D903233CE0034B1A688023EA
:102D40009B041340F0D134E000100240FF1FFFFF4E
:102D5000FFFEFFFF00700040FFFBFFFF8813000035
:102D6000FFFFFFEFFFFFFFFEFFFF02FF7B685B6AD5
:102D7000012B01D101231DE0104BDB68BB61BA6957
:102D800080235B021A407B689B6A9A420FD1BA6922
:102D9000F0239B031A407B68DB6A9A4207D1BA6929
:102DA000C0231B041A407B681B6B9A4201D001238D
:102DB00000E000231800BD460AB0B0BD001002407C
:102DC000B0B584B000AF786039607B68002B01D16A
:102DD000012328E1964B1B68012213403A689A426E
:102DE0001ED9934B1B68012293431900904B3A68FC
:102DF0000A431A60FEF718FB0300FB6009E0FEF7C8
:102E000013FB0200FB68D31A8A4A934201D90323B9
:102E100009E1874B1B68012213403A689A42EED1C0
:102E20007B681B680222134009D0834BDB68F022C9
:102E3000934319007B689A687F4B0A43DA607B688A
:102E40001B680122134000D189E07B685B68022B7C
:102E500007D1794B1A6880239B02134020D10123AC
:102E6000E1E07B685B68032B07D1734B1A68802312
:102E70009B04134014D10123D5E07B685B68012BD0
:102E800006D16D4B1B680422134009D10123CAE00F
:102E9000694B1A6880239B00134001D10123C2E0D3
:102EA000654BDB680322934319007B685A68624BC9
:102EB0000A43DA60FEF7B8FA0300FB607B685B68E0
:102EC000022B11D109E0FEF7AFFA0200FB68D31A1A
:102ED000584A934201D90323A5E0574BDB680C22E3
:102EE0001340082BEFD13AE07B685B68032B11D1CC
:102EF00009E0FEF799FA0200FB68D31A4D4A9342A3
:102F000001D903238FE04C4BDB680C2213400C2BC0
:102F1000EFD124E07B685B68012B1BD109E0FEF751
:102F200083FA0200FB68D31A424A934201D9032371
:102F300079E0414BDB680C221340042BEFD10EE00B
:102F4000FEF772FA0200FB68D31A3A4A934201D99B
:102F5000032368E0384BDB680C221340F0D1344B7C
:102F60001B68012213403A689A421ED2304B1B68FC
:102F70000122934319002E4B3A680A431A60FEF768
:102F800053FA0300FB6009E0FEF74EFA0200FB680B
:102F9000D31A284A934201D9032344E0244B1B68E7
:102FA000012213403A689A42EED17B681B680422E2
:102FB000134009D0204BDB68204A134019007B687E
:102FC000DA681D4B0A43DA607B681B6808221340ED
:102FD0000AD0194BDB681A4A134019007B681B6939
:102FE000DA00154B0A43DA6000F032F80100124BA8
:102FF000DB681B090F221340124AD35C0A00DA4037
:10300000114B1A60114B1B680B257C191800FEF739
:10301000C5F9030023707B191B78002B02D07B19A4
:103020001B7800E000231800BD4604B0B0BDC046C8
:10303000002002408813000000100240FFF8FFFF4C
:10304000FFC7FFFF547B00080000002004000020A1
:1030500080B586B000AF3C4BDB68FB60FB680C22A0
:1030600013400C2B13D05CD8042B02D0082B0BD0B0
:1030700057E0354B1B681022134002D0334B3B61A5
:103080005DE0334B3B615AE0324B3B6157E0FB68FC
:103090009B0C0F221340304AD35CBB60FB689B0D36
:1030A0000322134001337B60274BDA6880235B02E5
:1030B00013400FD0B9680A005201521A93019B1AAB
:1030C000DB005B185B0279681800FDF71DF8030050
:1030D0007B6123E01C4B1B68102213400FD0B968A2
:1030E0000A005201521A93019B1ADB005B181B0263
:1030F00079681800FDF708F803007B610EE0B968F5
:103100000A005201521A93019B1ADB005B189B02C2
:1031100079681800FCF7F8FF03007B617B693B616D
:103120000DE0094B5B685B0B072213403B603B687B
:103130000133802212029A4013003B61C0463B6972
:103140001800BD4606B080BD0010024000093D00D9
:103150000024F40000127A00647B000880B586B079
:1031600000AF786017203B1800221A707B681B683C
:103170002022134000D1C7E0844B9A6B80235B056B
:10318000134009D1814B9A6B804B802149050A433A
:103190009A633B1801221A707D4B1A6880235B00EA
:1031A00013401AD17A4B1A68794B802149000A439F
:1031B0001A60FEF739F903003B6108E0FEF734F9C5
:1031C00002003B69D31A642B01D90323D9E0704B69
:1031D0001A6880235B001340F0D06C4B1A68C02340
:1031E0009B031340FB607B685A68C0239B0313401A
:1031F000FA689A4213D07B685A68C0239B021A402F
:10320000C0239B029A420AD1604B1A6880239B021A
:103210001A4080239B029A4201D10123B1E05B4B0B
:103220001A6DC0239B021340FB60FB68002B3BD050
:103230007B685A68C0239B021340FA689A4233D0D5
:103240007B681B68202213402ED0504B1B6D514AC7
:103250001340FB604D4B1A6D4C4B802109030A4310
:103260001A654A4B1A6D494B4B490A401A65474B40
:10327000FA681A65FA6880235B00134014D0FEF7E1
:10328000D3F803003B6109E0FEF7CEF802003B698A
:10329000D31A424A934201D9032372E03B4B1A6D81
:1032A00080239B001340EFD07B681B6820221340D3
:1032B0001FD07B685A68C0239B021A40C0239B0220
:1032C0009A420CD1314B1B68354A134019007B6878
:1032D0005A68C0239B031A402C4B0A431A602B4B9D
:1032E000196D7B685A68C0239B021A40274B0A431A
:1032F0001A651723FB181B78012B05D1234B9A6BFA
:10330000224B28490A409A637B681B6802221340BB
:1033100009D01E4BDB6C0C22934319007B689A6822
:103320001A4B0A43DA647B681B680422134009D0F5
:10333000164BDB6C1C4A134019007B68DA68134B90
:103340000A43DA647B681B680822134009D00F4BDC
:10335000DB6C164A134019007B681A690B4B0A4351
:10336000DA647B681B688022134009D0074BDB6C52
:103370000F4A134019007B685A69044B0A43DA6408
:1033800000231800BD4606B080BDC04600100240B4
:1033900000700040FFFFFCFFFFFFF7FF88130000F5
:1033A000FFFFCFFFFFFFFFEFFFF3FFFFFFCFFFFFA9
:1033B000FFFFF3FF80B582B000AF78607B68002B21
:1033C00001D101237BE07B685B6A002B09D17B681C
:1033D0005A6882235B009A4209D07B680022DA6136
:1033E00005E07B6800221A617B6800225A617B68D5
:1033F00000229A627B6851229B5CDBB2002B07D1D2
:103400007B685022002199547B681800FDF7ECFE80
:103410007B685122022199547B681B681A687B687B
:103420001B6840218A431A607B685A6882235B00CC
:103430001A407B68996884231B020B401A437B68FF
:10344000D96880231B010B401A437B681B6902214A
:103450000B401A437B685B6901210B401A437B6870
:10346000996980239B000B401A437B68DB693821F4
:103470000B401A437B681B6A80210B401A431100E2
:103480007B689A6A80239B011A407B681B680A4309
:103490001A607B689B691B0C0422134019007B682F
:1034A0005B6A10221A407B681B680A435A607B687B
:1034B00000225A657B68512201219954002318008B
:1034C000BD4602B080BD80B588B000AFF860B9607D
:1034D0003B60BB1D1A80FDF7A7FF0300FB611A23A9
:1034E000FB18BA1D12881A80FB6851229B5CDBB264
:1034F000012B01D0022332E1BB68002B03D0BB1D9E
:103500001B88002B01D1012329E1FB6850229B5C21
:10351000012B01D1022322E1FB68502201219954A1
:10352000FB68512203219954FB6800225A65FB680D
:10353000BA681A63FB68BA1D12889A86FB68BA1DBE
:103540001288DA86FB6800229A63FB6800229A8759
:10355000FB680022DA87FB6800225A64FB680022BD
:103560001A64FB689A6880231B029A4210D1FB6898
:103570001B681A68FB681B6840218A431A60FB6855
:103580001B681A68FB681B688021C9010A431A601E
:10359000FB681B681B6840221340402B07D0FB6868
:1035A0001B681A68FB681B6840210A431A60FB68A5
:1035B000DA6880231B019A4253D1FB685B68002BB9
:1035C00004D01A23FB181B88012B44D1FB681B6B0A
:1035D0001A88FB681B68DA60FB681B6B9A1CFB6827
:1035E0001A63FB68DB8E9BB2013B9AB2FB68DA86FA
:1035F00031E0FB681B689B6802221340022B12D14A
:10360000FB681B6B1A88FB681B68DA60FB681B6B26
:103610009A1CFB681A63FB68DB8E9BB2013B9AB273
:10362000FB68DA8617E0FDF7FFFE0200FB69D31A9C
:103630003A689A4202D83B68013302D13B68002BBA
:1036400009D1FB68512201219954FB6850220021C5
:103650009954032383E0FB68DB8E9BB2002BC8D117
:1036600054E0FB685B68002B04D01A23FB181B880E
:10367000012B46D1FB681A6BFB681B680C33127870
:103680001A70FB681B6B5A1CFB681A63FB68DB8EA5
:103690009BB2013B9AB2FB68DA8632E0FB681B689A
:1036A0009B6802221340022B13D1FB681A6BFB6844
:1036B0001B680C3312781A70FB681B6B5A1CFB6872
:1036C0001A63FB68DB8E9BB2013B9AB2FB68DA8619
:1036D00017E0FDF7A9FE0200FB69D31A3A689A4287
:1036E00002D83B68013302D13B68002B09D1FB684B
:1036F000512201219954FB6850220021995403233F
:103700002DE0FB68DB8E9BB2002BC7D1FA693968CC
:10371000FB68180000F074FA031E02D0FB68202238
:103720005A65FB689B68002B0AD100237B61FB680C
:103730001B68DB687B61FB681B689B687B617B693E
:10374000FB68512201219954FB68502200219954B1
:10375000FB685B6D002B01D0012300E00023180003
:10376000BD4608B080BD80B58AB000AFF860B960D2
:103770007A601A00BB1C1A8001237B62FDF754FE9D
:1037800003003B621F203B18FA685121525C1A70FB
:10379000FB685B68BB611623FB18BA1C12881A8091
:1037A0003B181B78012B0ED0BA6982235B009A422A
:1037B00007D1FB689B68002B03D13B181B78042BB7
:1037C00001D002238AE1BB68002B06D07B68002B66
:1037D00003D0BB1C1B88002B01D101237EE1FB68B9
:1037E00050229B5C012B01D1022377E1FB68502220
:1037F00001219954FB6851229B5CDBB2042B03D05E
:10380000FB68512205219954FB6800225A65FB6828
:103810007A689A63FB68BA1C1288DA87FB68BA1C5C
:1038200012889A87FB68BA681A63FB68BA1C128808
:10383000DA86FB68BA1C12889A86FB6800221A6432
:10384000FB6800225A64FB681B681B684022134017
:10385000402B07D0FB681B681A68FB681B68402177
:103860000A431A60FB68DA6880231B019A4200D081
:1038700080E0FB685B68002B05D01623FB181B88D3
:10388000012B00D06BE0FB681B6B1A88FB681B6880
:10389000DA60FB681B6B9A1CFB681A63FB68DB8EA3
:1038A0009BB2013B9AB2FB68DA8658E0FB681B6862
:1038B0009B6802221340022B1BD1FB68DB8E9BB25C
:1038C000002B16D07B6A012B13D1FB681B6B1A8867
:1038D000FB681B68DA60FB681B6B9A1CFB681A6349
:1038E000FB68DB8E9BB2013B9AB2FB68DA86002351
:1038F0007B62FB681B689B6801221340012B19D176
:10390000FB68DB8F9BB2002B14D0FB681B68DA6866
:10391000FB689B6B92B21A80FB689B6B9A1CFB68DE
:103920009A63FB68DB8F9BB2013B9AB2FB68DA8734
:1039300001237B62FDF778FD02003B6AD31A3A6BE4
:103940009A420CD83B6B013309D0FB68512201210C
:103950009954FB685022002199540323BEE0FB6870
:10396000DB8E9BB2002BA1D1FB68DB8F9BB2002BBF
:103970009CD184E0FB685B68002B05D01623FB1804
:103980001B88012B00D070E0FB681A6BFB681B687A
:103990000C3312781A70FB681B6B5A1CFB681A6395
:1039A000FB68DB8E9BB2013B9AB2FB68DA865CE077
:1039B000FB681B689B6802221340022B1CD1FB682A
:1039C000DB8E9BB2002B17D07B6A012B14D1FB68D6
:1039D0001A6BFB681B680C3312781A70FB681B6B40
:1039E0005A1CFB681A63FB68DB8E9BB2013B9AB2E0
:1039F000FB68DA8600237B62FB681B689B680122F8
:103A00001340012B19D1FB68DB8F9BB2002B14D024
:103A1000FB681B68DA68FB689B6BD2B21A70FB68A4
:103A20009B6B5A1CFB689A63FB68DB8F9BB2013B64
:103A30009AB2FB68DA8701237B62FDF7F5FC02008E
:103A40003B6AD31A3A6B9A4202D83B6B013302D1DC
:103A50003B6B002B09D1FB68512201219954FB6873
:103A6000502200219954032338E0FB68DB8E9BB27F
:103A7000002B9DD1FB68DB8F9BB2002B98D13A6A5B
:103A8000396BFB68180000F0BBF8031E08D0FB6818
:103A900020225A65FB6850220021995401231DE021
:103AA000FB689B68002B0AD100233B61FB681B6805
:103AB000DB683B61FB681B689B683B613B69FB689B
:103AC000512201219954FB68502200219954FB682E
:103AD0005B6D002B01D0012300E000231800BD46E0
:103AE0000AB080BD80B588B000AFF860B9603B60B7
:103AF000FB1D1A70FDF798FC0200BB6A9B1A3A681E
:103B0000D318FB61FDF790FC0300BB613A4B1B68C7
:103B10005B011B0DFA6953437B6159E03B6801333C
:103B200056D0FDF781FC0200BB69D31AFA699A42AC
:103B300002D9FB69002B42D1FB681B685A68FB68FD
:103B40001B68E0218A435A60FB685A6882235B0045
:103B50009A4213D1FB689A6880231B029A4205D0CF
:103B6000FB689A688023DB009A4207D1FB681B68D8
:103B70001A68FB681B6840218A431A60FB689A6ACE
:103B800080239B019A4210D1FB681B681A68FB686E
:103B90001B681A490A401A60FB681B681A68FB68B0
:103BA0001B68802189010A431A60FB6851220121A8
:103BB0009954FB68502200219954032318E07B6933
:103BC000002B02D10023FB6102E07B69013B7B619A
:103BD000FB681B689B68BA681340BA68D31A5A42DC
:103BE0005341DBB21A00FB1D1B789A4296D1002389
:103BF0001800BD4608B080BD00000020FFDFFFFFB9
:103C000080B588B002AFF860B9607A60BA68F868C9
:103C10007B680093130001220221FFF763FF031E5C
:103C200007D0FB685B6D20221A43FB685A650323AB
:103C300037E01E4B1B681E491800FCF765FA0300AD
:103C40001A0013005B019B1A9B009B18DB007B6131
:103C5000FB685A6882235B009A4212D1BA68F868FE
:103C60007B680093130000228021FFF73BFF031EB7
:103C700016D0FB685B6D20221A43FB685A6503234C
:103C80000FE07B69002B0AD07B69013B7B61FB68FD
:103C90001B689B6880221340802BF2D000E0C04656
:103CA00000231800BD4606B080BDC04600000020BD
:103CB00000366E0180B582B000AF78607B68002B63
:103CC00001D1012332E07B6839229B5CDBB2002BFF
:103CD00007D17B683822002199547B681800FDF7D2
:103CE000C7FA7B683922022199547B681A687B687D
:103CF00004331900100000F04FFA7B683E220121C6
:103D000099547B683A22012199547B683B22012116
:103D100099547B683C22012199547B683D22012102
:103D200099547B6839220121995400231800BD461B
:103D300002B080BD80B584B000AF78607B68392266
:103D40009B5CDBB2012B01D0012336E07B6839227A
:103D5000022199547B681B68DA687B681B68012123
:103D60000A43DA607B681A688023DB059A4209D02F
:103D70007B681B68134A934204D07B681B68124A15
:103D8000934211D17B681B689B6807221340FB603C
:103D9000FB68062B10D07B681B681A687B681B6861
:103DA00001210A431A6007E07B681B681A687B6878
:103DB0001B6801210A431A6000231800BD4604B0A5
:103DC00080BDC046000801400014014080B582B0AB
:103DD00000AF78607B681B68DA687B681B6801212C
:103DE0008A43DA607B681B681B6A0A4A134007D162
:103DF0007B681B681A687B681B6801218A431A600C
:103E00007B6839220121995400231800BD4602B075
:103E100080BDC0461111000080B584B000AF78604D
:103E20007B681B68DB68FB607B681B681B69BB6089
:103E3000BB680222134021D0FB68022213401DD030
:103E40007B681B68032252421A617B6801221A7642
:103E50007B681B689B690322134004D07B681800B1
:103E600000F082F907E07B68180000F075F97B68C4
:103E7000180000F081F97B6800221A76BB680422E2
:103E8000134022D0FB68042213401ED07B681B68BD
:103E9000052252421A617B6802221A767B681B68EF
:103EA0009A69C0239B00134004D07B68180000F07F
:103EB0005BF907E07B68180000F04EF97B6818009A
:103EC00000F05AF97B6800221A76BB68082213407A
:103ED00021D0FB68082213401DD07B681B68092293
:103EE00052421A617B6804221A767B681B68DB6980
:103EF0000322134004D07B68180000F035F907E076
:103F00007B68180000F028F97B68180000F034F98D
:103F10007B6800221A76BB681022134022D0FB680F
:103F2000102213401ED07B681B68112252421A6176
:103F30007B6808221A767B681B68DA69C0239B00BD
:103F4000134004D07B68180000F00EF907E07B688E
:103F5000180000F001F97B68180000F00DF97B688B
:103F600000221A76BB68012213400CD0FB680122A4
:103F7000134008D07B681B68022252421A617B689A
:103F80001800FDF765F8BB68402213400CD0FB68B1
:103F90004022134008D07B681B68412252421A61BC
:103FA0007B68180000F0F0F8C046BD4604B080BD44
:103FB00080B584B000AF786039600F23FB18002211
:103FC0001A707B6838229B5C012B01D10223BCE074
:103FD0007B683822012199547B6839220221995447
:103FE0007B681B689B68BB60BB6877229343BB60A0
:103FF000BB68584A1340BB607B681B68BA689A600C
:104000003B681B6880229201934240D0802292013B
:10401000934200D988E080225201934200D188E087
:1040200080225201934200D97EE0702B18D000D933
:104030007AE0602B4FD000D976E0502B3BD000D9EE
:1040400072E0402B57D000D96EE0302B63D06BD894
:10405000202B60D068D8002B5DD0102B5BD063E0A4
:104060007B6818683B6899683B685A683B68DB68FE
:1040700000F066F97B681B689B68BB60BB687722B1
:104080001343BB607B681B68BA689A6052E07B6828
:1040900018683B6899683B685A683B68DB6800F0C1
:1040A0004FF97B681B689A687B681B688021C9018F
:1040B0000A439A603EE07B6818683B6859683B6831
:1040C000DB681A0000F0C2F87B681B6850211800FA
:1040D00000F01CF92EE07B6818683B6859683B6863
:1040E000DB681A0000F0E0F87B681B6860211800AC
:1040F00000F00CF91EE07B6818683B6859683B6863
:10410000DB681A0000F0A2F87B681B6840211800E9
:1041100000F0FCF80EE07B681A683B681B68190029
:10412000100000F0F3F805E00F23FB1801221A70CD
:1041300000E0C0467B683922012199547B6838220F
:10414000002199540F23FB181B781800BD4604B0BA
:1041500080BDC046FF00FFFF80B582B000AF786031
:10416000C046BD4602B080BD80B582B000AF786069
:10417000C046BD4602B080BD80B582B000AF786059
:10418000C046BD4602B080BD80B582B000AF786049
:10419000C046BD4602B080BD80B584B000AF786037
:1041A00039607B681B68FB607A688023DB059A4274
:1041B00007D07B68224A934203D07B68214A93420E
:1041C00008D1FB6870229343FB603B685B68FA6828
:1041D0001343FB607A688023DB059A4207D07B6833
:1041E000174A934203D07B68164A934208D1FB6872
:1041F000154A1340FB603B68DB68FA681343FB60B9
:10420000FB68802293431A003B681B691343FB60E1
:104210003B689A687B68DA623B681A687B689A62D6
:104220007B681B6804221A437B681A607B68012242
:104230005A617B68FA681A60C046BD4604B080BD0A
:104240000008014000140140FFFCFFFF80B586B06C
:1042500000AFF860B9607A60FB681B6A7B61FB683D
:104260001B6A012293431A00FB681A62FB689B6970
:104270003B613B69F02293433B617B681B013A69D8
:1042800013433B617B690A2293437B617A69BB6874
:1042900013437B61FB683A699A61FB687A691A6229
:1042A000C046BD4606B080BD80B586B000AFF860A0
:1042B000B9607A60FB681B6A7B61FB681B6A10222D
:1042C00093431A00FB681A62FB689B693B613B6978
:1042D0000D4A13403B617B681B033A6913433B6102
:1042E0007B69A02293437B61BB681B017A691343FE
:1042F0007B61FB683A699A61FB687A691A62C04619
:10430000BD4606B080BDC046FF0FFFFF80B584B03C
:1043100000AF786039607B689B68FB60FB68702247
:104320009343FB603A68FB68134307221343FB6027
:104330007B68FA689A60C046BD4604B080BD000044
:1043400080B586B000AFF860B9607A603B60FB680A
:104350009B687B617B69094A13407B613B681A0259
:104360007B681A43BB6813437A6913437B61FB681C
:104370007A699A60C046BD4606B080BDFF00FFFF67
:1043800080B584B000AF786039607B6838229B5C70
:10439000012B01D1022342E07B683822012199548C
:1043A0007B683922022199547B681B685B68FB603B
:1043B0007B681B689B68BB60FB6870229343FB6053
:1043C0003B681B68FA681343FB607B681B68FA68EC
:1043D0005A607B681A688023DB059A4209D07B68A3
:1043E0001B68114A934204D07B681B680F4A9342B2
:1043F0000CD1BB6880229343BB603B685B68BA68A2
:104400001343BB607B681B68BA689A607B6839227B
:10441000012199547B683822002199540023180007
:10442000BD4604B080BDC0460008014000140140F4
:1044300080B500AF064A074B1100180003F0FEFAE2
:1044400003001A00044B1A70C046BD4680BDC0462A
:10445000E80500200C000020E405002080B500AF36
:1044600000231800BD4680BD80B582B000AF0200B9
:10447000FB1D1A70FB1D1B78180000F017FA0300D3
:104480001800BD4602B080BD80B582B000AF02000A
:10449000FB1D1A70FB1D1B78180000F01FFB0300AA
:1044A0001800BD4602B080BDB0B584B000AFB960A1
:1044B0007A603B600F257B19021C1A703C687A6891
:1044C000B9687B191878230000F01EFB0300180060
:1044D000BD4604B0B0BDB0B584B000AFB9607A607D
:1044E0003B600F257B19021C1A703C687A68B9681A
:1044F0007B191878230000F073FB03001800BD46F9
:1045000004B0B0BD80B582B000AF3A60FB1D021CA4
:104510001A70BB1D0A1C1A703A68BB1D1978FB1D66
:104520001B78180000F0DCFB03001800BD4602B049
:1045300080BD000080B582B000AF7860FCF774FFEA
:104540000200044B1A60044B7A681A60C046BD46EC
:1045500002B080BDF0050020F405002080B500AF5A
:10456000FCF762FF0200064B1B68D21A054B1B6862
:104570009A429B415B42DBB21800BD4680BDC046FB
:10458000F0050020F405002090B587B002AF0200CE
:10459000FB1D1A700F243A19F91D064832230093A7
:1045A0000123FFF7E0F83B191B781800BD4605B062
:1045B00090BDC0469400002090B585B000AF7860F3
:1045C00039600023FB600AE07A68FB68D418FF209A
:1045D000FFF7DAFF03002370FB680133FB60FA6822
:1045E0003B689A42F0D3C046C046BD4605B090BD78
:1045F00080B582B000AF786039603B689AB2012321
:104600005B4279680348FEF75EFFC046BD4602B0D4
:1046100080BDC04694000020B0B586B000AF786081
:10462000FCF702FF03007B617B683B610F257C196F
:10463000FF20FFF7A9FF030023707B191B78FF2BD6
:1046400007D0FCF7F1FE02007B69D31A3A699A425F
:10465000ECD80F23FB181B78FF3B5A425341DBB2C7
:104660001800BD4606B0B0BD80B500AFA023DB0585
:10467000012210211800FDF76EF9FF20FFF784FFDB
:10468000C046BD4680BD80B500AFA023DB0500223B
:1046900010211800FDF75FF9FF20FFF775FFFA23DF
:1046A0005B001800FFF7B8FF031E01D0012302E0F2
:1046B000FFF7DAFF00231800BD4680BDB0B584B017
:1046C00000AF78603960C820FFF734FF0F257C19F0
:1046D000FF20FFF759FF030023707B191B78FF2B86
:1046E00003D1FFF73BFF031EF0D10F23FB181B780C
:1046F000FE2B01D000230CE03A687B681100180003
:10470000FFF75AFFFF20FFF73FFFFF20FFF73CFFB7
:1047100001231800BD4604B0B0BDB0B584B000AFF1
:1047200078600A00FB1C1A70FA235B001800FFF780
:1047300073FF031E01D1002325E0FB1C1B7818002A
:10474000FFF722FFFB1C1B78FD2B1BD080239A0058
:104750007B6811001800FFF74BFFFF20FFF714FFE5
:10476000FF20FFF711FF0F257C19FF20FFF70CFF3B
:10477000030023707B191B781F221340052B01D0E7
:10478000002300E001231800BD4604B0B0BDB0B561
:1047900084B000AF02003960FB1D1A70FB1D1B784E
:1047A0005BB2002B15DAFB1DFA1D12787F210A403F
:1047B0001A700E257C1900213720FFF7E8FF03004F
:1047C00023702A00BB181B78012B02D9BB181B7859
:1047D00067E0FB1D1B780C2B07D0FFF745FFFFF7A9
:1047E00052FF031E01D1FF235BE0FB1D1B7840221B
:1047F0001343DBB21800FFF7C7FE3B681B0EDBB2AA
:104800001800FFF7C1FE3B681B0CDBB21800FFF776
:10481000BBFE3B681B0ADBB21800FFF7B5FE3B6826
:10482000DBB21800FFF7B0FE0F217B1801221A70CF
:10483000FB1D1B78002B02D17B1895221A70FB1DE3
:104840001B78082B03D10F23FB1887221A700F2324
:10485000FB181B781800FFF797FEFB1D1B780C2B2D
:1048600002D1FF20FFF790FE0F23FB180A221A70D7
:104870000E257C19FF20FFF787FE030023707B19AC
:104880001B785BB2002B09DA0F217B187A1812789B
:10489000013A1A707B181B78002BE9D10E23FB1804
:1048A0001B781800BD4604B0B0BD0000B0B584B0A0
:1048B00000AF0200FB1D1A70FB1D1B78002B01D0FE
:1048C000012300E1824B1B78DBB21A000223134064
:1048D00003D07F4B1B78DBB2F5E07E4B1B681B6877
:1048E000382293431A007B4B1B6830210A431A601D
:1048F0000F23FB180A221A7008E0FF20FFF744FE7E
:104900000F217B181A787B18013A1A700F243B1973
:104910001B78002BF1D10D23FB1800221A70002107
:104920000020FFF734FF0300012B00D0A6E0FA239C
:104930009B001800FFF7FEFDD5235B00190008203F
:10494000FFF725FF0300012B62D13B1900221A70EB
:104950000FE00F257B191C78FF20FFF715FE0300E1
:104960001A000823FB181A557B191A787B19013293
:104970001A700F23FB181B78032BEAD90822BB18E7
:104980009B78012B00D079E0BB18DB78AA2B00D0F4
:1049900074E0C046FFF7E2FD031E07D08023DB056D
:1049A0001900A920FFF7F3FE031EF3D1FFF7D6FD90
:1049B000031E63D000213A20FFF7E9FE031E5DD1FC
:1049C0000F23FB1800221A700FE00F257B191C78AB
:1049D000FF20FFF7D9FD03001A000823FB181A5522
:1049E0007B191A787B1901321A700F23FB181B7878
:1049F000032BEAD90823FB181B781A004023134025
:104A000001D00C2200E004220D23FB181A7035E0BF
:104A10000021A920FFF7BBFE0300012B08D80D23BE
:104A2000FB1802221A700E23FB18A9221A7007E045
:104A30000D23FB1801221A700E23FB1801221A7095
:104A4000C046FFF78BFD031E08D00E23FB181B7812
:104A500000211800FFF79BFE031EF2D1FFF77EFD39
:104A6000031E07D080239B0019001020FFF78FFE44
:104A7000031E03D00D23FB1800221A70164B0D24C1
:104A80003A1912781A70FFF7EFFD3B191B78002BCB
:104A900013D0104B1B681B68382293431A000D4B30
:104AA0001B6810210A431A60094B1B78DBB20122F4
:104AB0009343DAB2064B1A7002E0054B01221A70DA
:104AC000034B1B78DBB21800BD4604B0B0BDC04636
:104AD0002000002094000020EC05002080B582B06A
:104AE00000AF0200FB1D1A70FB1D1B78002B01D0CC
:104AF000012302E0034B1B78DBB21800BD4602B075
:104B000080BDC0462000002080B584B000AFB960F1
:104B10007A603B600F217B18021C1A707B181B788F
:104B2000002B02D13B68002B01D104234FE02A4B1C
:104B30001B78DBB21A000123134001D0032346E0A7
:104B4000264B1B781A000823134002D17B685B02B6
:104B50007B603B68012B12D17B6819001120FFF7A5
:104B600016FE031E2DD180239A00BB681100180089
:104B7000FFF7A4FD031E24D000233B6021E07B68E7
:104B800019001220FFF703FE031E1AD180239A009A
:104B9000BB6811001800FFF791FD031E0CD0BB6825
:104BA0008022920094466344BB603B68013B3B60BB
:104BB0003B68002BEAD100E0C04600210C20FFF743
:104BC000E6FDFFF751FD3B685A1E9341DBB218002A
:104BD000BD4604B080BDC04620000020EC0500208A
:104BE00080B584B000AFB9607A603B600F217B185C
:104BF000021C1A707B181B78002B02D13B68002B1B
:104C000001D1042363E0344B1B78DBB21A0001238B
:104C1000134001D003235AE02F4B1B78DBB21A005C
:104C20000423134001D0022351E02C4B1B781A00BF
:104C30000823134002D17B685B027B603B68012B39
:104C400010D17B6819001820FFF7A1FD031E38D191
:104C5000BB68FE211800FFF760FD031E31D0002362
:104C60003B602EE01D4B1B781A000623134004D036
:104C70003B6819009720FFF78AFD7B68190019200F
:104C8000FFF785FD031E1CD1BB68FC211800FFF750
:104C900044FD031E0CD0BB688022920094466344FE
:104CA000BB603B68013B3B603B68002BECD100E004
:104CB000C046FD210020FFF730FD031E01D1012376
:104CC0003B60FFF7D1FC3B685A1E9341DBB21800F2
:104CD000BD4604B080BDC04620000020EC05002089
:104CE00090B58DB000AF3A60FB1D021C1A70BB1D61
:104CF0000A1C1A70FB1D1B78002B01D0042378E1DD
:104D0000BE4B1B78DBB21A000123134001D00323F2
:104D10006FE12F23FB1801221A70BB1D1B78042B97
:104D200000D100E100DD4DE1032B00D174E000DD96
:104D300048E1002B02D0012B0AD043E1FFF7A3FC8E
:104D4000031E00D143E12F23FB1800221A703EE11D
:104D500000210920FFF71BFD031E00D039E10C24C0
:104D60003B1910211800FFF7A9FC031E00D130E108
:104D700020003B181B789B09DBB2012B15D13B1897
:104D80005B7A1A003B181B7A1B02D31819003B18D8
:104D9000DB791A04FC239B031340CB180133FB611E
:104DA000FB699A023B681A6031E00C203B185B7982
:104DB0000F221340DAB23B189B7ADB09DBB2D3181F
:104DC000DAB23B185B7ADB18DBB206210B40DBB2B0
:104DD000D318DAB22E243B1902321A703B181B7A10
:104DE0009B09DBB21A003B18DB799B00D2183B18F9
:104DF0009B799902C0231B010B40D3180133FB613F
:104E00003B191B78093BFA699A403B681A602F23CB
:104E1000FB1800221A70DCE0794B1B781A0004237F
:104E2000134035D000218D20FFF7B1FC031E00D0C8
:104E3000D1E0FF20FFF7A8FB0C23FB18102118007E
:104E4000FFF73CFC031E00D1C5E02E23FB183022E7
:104E50001A7008E0FF20FFF797FB2E217B181A78C5
:104E60007B18013A1A702E23FB181B78002BF1D106
:104E70000C23FB189B7A1B09DBB21A00102393400A
:104E80001A003B681A602F23FB1800221A70A2E058
:104E900000210920FFF77BFC031E00D09BE00C24BF
:104EA0003B1910211800FFF709FC031E00D192E006
:104EB000534B1B781A000223134016D021007B1895
:104EC0009B7A5B007E2213407A18D27AD209D2B242
:104ED0009B185A1C7B185B7B9B09DBB2013B9A40F9
:104EE00013001A003B681A6018E00C217B189B7AAB
:104EF0009B109BB21A001F231340013308007A183D
:104F0000D27AD20018210A403918C97A4909C9B29F
:104F10005218013253431A003B681A602F23FB18C2
:104F200000221A7057E0364B1B781A0006231340F4
:104F300053D00C243A19FB1D1B780B211800FFF7E6
:104F4000CFFE031E4BD13B191B789B09DBB2002B14
:104F500005D13B199B7A1A004023134041D03B688E
:104F60003B623B6A1B68BB623B6A5B687B62244BAB
:104F70001B781A000823134005D1BB6A5B02BB6291
:104F80007B6A5B027B62BB6A19002020FFF7FFFB94
:104F9000031E28D17B6A19002120FFF7F8FB031EAE
:104FA00021D100212620FFF7F2FB031E1BD1154B58
:104FB0001800FFF731FB031E15D02F23FB1800222A
:104FC0001A7010E02F23FB1804221A700CE0C04660
:104FD0000AE0C04608E0C04606E0C04604E0C0461D
:104FE00002E0C04600E0C046FFF73EFB2F23FB185F
:104FF0001B781800BD460DB090BDC04620000020B3
:10500000EC05002030750000B0B584B000AF0200A0
:10501000FB1D1A70FB1D1B780B4A9B00D318043331
:105020001B685B68FA1D127807498A18127A0F25E7
:105030007C1910009847030023707B191B78180017
:10504000BD4604B0B0BDC0462006002090B585B076
:1050500000AF0200FB1D1A700F203B1800221A70CF
:10506000FB1D1B78104AD35C002B16D1FB1D1B784F
:105070000D4A0121D154FB1D1B780B4A9B00D3180C
:1050800004331B681B68FA1D127807498A18127AC4
:105090003C1810009847030023700F23FB181B785F
:1050A0001800BD4605B090BD20060020F0B587B0C1
:1050B00000AFB9607A603B600F217B18021C1A7048
:1050C0007B181B780C4A9B00D31804331B689D681F
:1050D0007B181B78084AD318187A1726BC193B6826
:1050E0007A68B968A84703002370BB191B781800B9
:1050F000BD4607B0F0BDC04620060020F0B587B021
:1051000000AFB9607A603B600F217B18021C1A70F7
:105110007B181B780C4A9B00D31804331B68DD688E
:105120007B181B78084AD318187A1726BC193B68D5
:105130007A68B968A84703002370BB191B78180068
:10514000BD4607B0F0BDC04620060020F0B585B0D2
:1051500000AF3A60FB1D021C1A70BB1D0A1C1A70BE
:10516000FB1D1B780C4A9B00D31804331B681B697A
:10517000FA1D127808498A18107A0F26BC193D6862
:10518000BA1D11782A00984703002370BB191B78B9
:105190001800BD4605B0F0BD2006002080B584B0E3
:1051A00000AF78607B6801331A780E217B181A8073
:1051B0007B1800229B5E1B021AB27B681B781BB215
:1051C00013431AB27B181A807B181B881800BD463F
:1051D00004B080BD80B584B000AF78607B680333D5
:1051E0001B78FB60FB681B027A680232127813435B
:1051F000FB60FB681B027A68013212781343FB6084
:10520000FB681B027A6812781343FB60FB68180086
:10521000BD4604B080BD80B582B000AF78600A00A2
:10522000BB1C1A807B685A1C7A60BA1C1288D2B2E6
:105230001A70BB1CBA1C1288120A1A807B685A1C8E
:105240007A60BA1C1288D2B21A70C046BD4602B04B
:1052500080BD80B582B000AF786039607B685A1C31
:105260007A603A68D2B21A703B681B0A3B607B686E
:105270005A1C7A603A68D2B21A703B681B0A3B60CB
:105280007B685A1C7A603A68D2B21A703B681B0A73
:105290003B607B685A1C7A603A68D2B21A70C0468A
:1052A000BD4602B080BD80B586B000AFF860B96081
:1052B0007A60FB687B61BB683B617B68002B0DD02B
:1052C0003A69531C3B617B69591C796112781A70E9
:1052D0007B68013B7B607B68002BF1D1C046BD46FB
:1052E00006B080BD80B586B000AFF860B9607A6066
:1052F000FB687B617B695A1C7A61BA68D2B21A700A
:105300007B68013B7B607B68002BF3D1C046C046C5
:10531000BD4606B080BD80B588B000AFF860B9600A
:105320007A60FB68FB61BB68BB6100237B61FB6942
:105330005A1CFA611B781900BB695A1CBA611B78A8
:10534000CB1A7B617B68013B7B607B68002B02D0C2
:105350007B69002BEBD07B691800BD4608B080BD8F
:1053600080B582B000AF7860396002E07B680133BD
:105370007B607B681B78002B05D07B681B781A004C
:105380003B689342F2D17B681B781800BD4602B09F
:1053900080BD000080B584B000AF78603960002324
:1053A000BB60BB68FB6027E0254BFA681201D3584D
:1053B000002B1CD0224BFA681201D2587B681B6864
:1053C0009A4216D11E4AFB681B01D31804331A688F
:1053D0007B689B689A420CD1194AFB681B01D31861
:1053E00008331A687B685B699A4202D107E001239F
:1053F000BB60FB680133FB60FB68012BD4D9FB6801
:10540000022B09D1BB68002B02D13B68022B01D1D2
:10541000002311E012230FE03B68002B09D1084A5A
:10542000FB681B01D3180C331A8880235B009A4257
:1054300001D1102300E000231800BD4604B080BD58
:105440000006002080B582B000AF00237B6002E040
:105450007B6801337B607B68012B05D8074B7A683A
:105460001201D358002BF3D17B68023B5A1E9341A3
:10547000DBB21800BD4602B080BDC0460006002069
:1054800080B584B000AF786039600023FB601EE017
:105490003F4BFA681201D2587B681B689A4213D1BD
:1054A0003B4AFB681B01D31804331A687B689B686E
:1054B0009A4209D1364AFB681B01D31808331A688F
:1054C0007B685B699A4206D0FB680133FB60FB682E
:1054D000012BDDD900E0C046FB68022B30D1002350
:1054E000FB6002E0FB680133FB60FB68012B05D821
:1054F000274BFA681201D358002BF3D1FB68022B1B
:1055000001D100233FE07B681968214BFA68120142
:10551000D1507B689A681E49FB681B01CB18043385
:105520001A607B685A691A49FB681B01CB1808335B
:105530001A60174AFB681B01D3180C3300221A802B
:105540003B68002B09D0124AFB681B01D3180C33AF
:105550001B88002B01D0002315E03B68002B08D1ED
:105560000B4AFB681B01D3180C331B8801339BB219
:1055700001E080235B000649FA6812018A180C32A8
:105580001380FB6801331800BD4604B080BDC046DF
:105590000006002080B584B000AF78607B68013BD6
:1055A0007B607B68012B32D80E203B181D497A683E
:1055B00012018A180C3212881A803B181A8880232C
:1055C0005B009A4202D13B1800221A800E217B1800
:1055D0001B88002B04D07B181A887B18013A1A808C
:1055E000104A7B681B01D3180C330E217A181288DD
:1055F0001A807B181B88002B04D10A4B7A68120191
:105600000021D1500D23FB1800221A7003E00D2356
:10561000FB1802221A700D23FB181B781800BD46D8
:1056200004B080BD0006002080B584B000AF786073
:105630000023FB600EE00B4BFA681201D3587A6826
:105640009A4204D1074BFA6812010021D150FB683D
:105650000133FB60FB68012BEDD9C046C046BD4657
:1056600004B080BD0006002090B587B000AF786020
:105670000F243B1900221A707B68DB78002B34D092
:105680007B68DB6A7B617B6858787B683033190004
:105690007A690123FFF732FD031E03D03B19012273
:1056A0001A7022E07B680022DA707B681B6A7A69D4
:1056B000D21A7B689B699A4217D27B689B783B61C0
:1056C00010E07B689B697A69D3187B617B685878A6
:1056D0007B68303319007A690123FFF70FFD3B69BE
:1056E000013B3B613B69012BEBD80F23FB181B7877
:1056F0001800BD4607B090BDB0B584B000AF78606B
:1057000039600F257B1900221A707B68DB6A3A68C2
:105710009A421FD07C197B681800FFF7A5FF030091
:1057200023702C003B191B78002B13D17B68587811
:105730007B68303319003A680123FFF7B7FC031E7A
:1057400005D001235B423B603B1901221A707B6844
:105750003A68DA620F23FB181B781800BD4604B0C4
:10576000B0BD0000B0B584B000AF78600F257C19E3
:105770007B681800FFF778FF030023707B191B7804
:10578000002B5DD17B681B78032B4CD17B681B7988
:10579000012B48D17B683033802292000021180011
:1057A000FFF7A0FD7B683033FF33FF33284A110039
:1057B0001800FFF730FD7B683033264A11001800CF
:1057C000FFF747FD7B683033E533FF33224A110092
:1057D0001800FFF73EFD7B683033E933FF331A00D2
:1057E0007B681B6919001000FFF733FD7B683033BD
:1057F000ED33FF331A007B68DB6819001000FFF7F8
:1058000028FD7B68DB695A1C7B68DA627B68587804
:105810007B68303319007B68DA6A0123FFF76EFC7E
:105820007B6800221A717B685B78002200211800D7
:10583000FFF78CFC031E03D00F23FB1801221A7004
:105840000F23FB181B781800BD4604B0B0BDC0463E
:1058500055AA0000525261417272416180B582B016
:1058600000AF786039603B68023B3B607B685B69F6
:10587000023B3A689A4201D3002307E07B685B89C8
:105880001A003B685A437B689B6AD3181800BD46D0
:1058900002B080BD80B586B000AF786039607B68AB
:1058A0001B683B613B68012B04D93B695B693A6823
:1058B0009A4202D301237B6191E001235B427B6129
:1058C0003B691B78032B63D000DD7EE0012B02D007
:1058D000022B42D079E03B68FB60FB685B08FA680A
:1058E000D318FB603B691A6AFB685B0AD2183B69F4
:1058F00011001800FFF700FF031E69D1FB685A1C56
:10590000FA60DB05DB0D3A693021D3185B181B7890
:10591000BB603B691A6AFB685B0AD2183B691100DD
:105920001800FFF7E9FE031E54D1FB68DB05DB0D11
:105930003A693021D3185B181B781B02BA681343ED
:10594000BB603B680122134002D0BB681B0902E028
:10595000BB681B051B0D7B6141E03B691A6A3B6814
:105960001B0AD2183B6911001800FFF7C5FE031E81
:1059700032D13B6930331A003B685900FF235B008A
:105980000B40D3181800FFF709FC03007B6126E0E9
:105990003B691A6A3B68DB09D2183B6911001800A1
:1059A000FFF7AAFE031E19D13B6930331A003B688A
:1059B0009900FE235B000B40D3181800FFF70AFC88
:1059C00003001B011B097B6109E001237B6106E0E9
:1059D000C04604E0C04602E0C04600E0C0467B6925
:1059E0001800BD4606B080BDB0B588B000AFF86005
:1059F000B9607A601F23FB1802221A70BB68012B62
:105A000000D8EBE0FB685B69BA689A4200D3E5E036
:105A1000FB681B78032B00D1A1E000DDDEE0012B49
:105A200003D0022B00D175E0D8E0BB68BB61BB6935
:105A30005B08BA69D318BB61FB681A6ABB695B0A69
:105A4000D2181F257C19FB6811001800FFF754FEBF
:105A5000030023707B191B78002B00D0B7E0FB6894
:105A600030331A00BB69591CB961DB05DB0DD31853
:105A70007B61BB68012213400DD07B691B785BB250
:105A80000F2213405AB27B685BB21B015BB2134317
:105A90005BB2DBB201E07B68DBB27A691370FB6852
:105AA0000122DA70FB681A6ABB695B0AD2181F25EB
:105AB0007C19FB6811001800FFF71EFE030023701D
:105AC0007B191B78002B00D083E0FB6830331A0071
:105AD000BB69DB05DB0DD3187B61BB68012213407A
